{
  "contractName": "ImanoToken",
  "abi": [
    {
      "inputs": [],
      "stateMutability": "nonpayable",
      "type": "constructor"
    },
    {
      "anonymous": false,
      "inputs": [
        {
          "indexed": true,
          "internalType": "address",
          "name": "owner",
          "type": "address"
        },
        {
          "indexed": true,
          "internalType": "address",
          "name": "approved",
          "type": "address"
        },
        {
          "indexed": true,
          "internalType": "uint256",
          "name": "tokenId",
          "type": "uint256"
        }
      ],
      "name": "Approval",
      "type": "event"
    },
    {
      "anonymous": false,
      "inputs": [
        {
          "indexed": true,
          "internalType": "address",
          "name": "owner",
          "type": "address"
        },
        {
          "indexed": true,
          "internalType": "address",
          "name": "operator",
          "type": "address"
        },
        {
          "indexed": false,
          "internalType": "bool",
          "name": "approved",
          "type": "bool"
        }
      ],
      "name": "ApprovalForAll",
      "type": "event"
    },
    {
      "anonymous": false,
      "inputs": [
        {
          "indexed": true,
          "internalType": "address",
          "name": "from",
          "type": "address"
        },
        {
          "indexed": true,
          "internalType": "address",
          "name": "to",
          "type": "address"
        },
        {
          "indexed": true,
          "internalType": "uint256",
          "name": "tokenId",
          "type": "uint256"
        }
      ],
      "name": "Transfer",
      "type": "event"
    },
    {
      "inputs": [
        {
          "internalType": "uint256",
          "name": "",
          "type": "uint256"
        }
      ],
      "name": "Items",
      "outputs": [
        {
          "internalType": "uint256",
          "name": "id",
          "type": "uint256"
        },
        {
          "internalType": "address",
          "name": "creator",
          "type": "address"
        },
        {
          "internalType": "string",
          "name": "uri",
          "type": "string"
        }
      ],
      "stateMutability": "view",
      "type": "function"
    },
    {
      "inputs": [
        {
          "internalType": "address",
          "name": "to",
          "type": "address"
        },
        {
          "internalType": "uint256",
          "name": "tokenId",
          "type": "uint256"
        }
      ],
      "name": "approve",
      "outputs": [],
      "stateMutability": "nonpayable",
      "type": "function"
    },
    {
      "inputs": [
        {
          "internalType": "address",
          "name": "owner",
          "type": "address"
        }
      ],
      "name": "balanceOf",
      "outputs": [
        {
          "internalType": "uint256",
          "name": "",
          "type": "uint256"
        }
      ],
      "stateMutability": "view",
      "type": "function"
    },
    {
      "inputs": [
        {
          "internalType": "uint256",
          "name": "tokenId",
          "type": "uint256"
        }
      ],
      "name": "getApproved",
      "outputs": [
        {
          "internalType": "address",
          "name": "",
          "type": "address"
        }
      ],
      "stateMutability": "view",
      "type": "function"
    },
    {
      "inputs": [
        {
          "internalType": "address",
          "name": "owner",
          "type": "address"
        },
        {
          "internalType": "address",
          "name": "operator",
          "type": "address"
        }
      ],
      "name": "isApprovedForAll",
      "outputs": [
        {
          "internalType": "bool",
          "name": "",
          "type": "bool"
        }
      ],
      "stateMutability": "view",
      "type": "function"
    },
    {
      "inputs": [],
      "name": "name",
      "outputs": [
        {
          "internalType": "string",
          "name": "",
          "type": "string"
        }
      ],
      "stateMutability": "view",
      "type": "function"
    },
    {
      "inputs": [
        {
          "internalType": "uint256",
          "name": "tokenId",
          "type": "uint256"
        }
      ],
      "name": "ownerOf",
      "outputs": [
        {
          "internalType": "address",
          "name": "",
          "type": "address"
        }
      ],
      "stateMutability": "view",
      "type": "function"
    },
    {
      "inputs": [
        {
          "internalType": "address",
          "name": "from",
          "type": "address"
        },
        {
          "internalType": "address",
          "name": "to",
          "type": "address"
        },
        {
          "internalType": "uint256",
          "name": "tokenId",
          "type": "uint256"
        }
      ],
      "name": "safeTransferFrom",
      "outputs": [],
      "stateMutability": "nonpayable",
      "type": "function"
    },
    {
      "inputs": [
        {
          "internalType": "address",
          "name": "from",
          "type": "address"
        },
        {
          "internalType": "address",
          "name": "to",
          "type": "address"
        },
        {
          "internalType": "uint256",
          "name": "tokenId",
          "type": "uint256"
        },
        {
          "internalType": "bytes",
          "name": "_data",
          "type": "bytes"
        }
      ],
      "name": "safeTransferFrom",
      "outputs": [],
      "stateMutability": "nonpayable",
      "type": "function"
    },
    {
      "inputs": [
        {
          "internalType": "address",
          "name": "operator",
          "type": "address"
        },
        {
          "internalType": "bool",
          "name": "approved",
          "type": "bool"
        }
      ],
      "name": "setApprovalForAll",
      "outputs": [],
      "stateMutability": "nonpayable",
      "type": "function"
    },
    {
      "inputs": [
        {
          "internalType": "bytes4",
          "name": "interfaceId",
          "type": "bytes4"
        }
      ],
      "name": "supportsInterface",
      "outputs": [
        {
          "internalType": "bool",
          "name": "",
          "type": "bool"
        }
      ],
      "stateMutability": "view",
      "type": "function"
    },
    {
      "inputs": [],
      "name": "symbol",
      "outputs": [
        {
          "internalType": "string",
          "name": "",
          "type": "string"
        }
      ],
      "stateMutability": "view",
      "type": "function"
    },
    {
      "inputs": [
        {
          "internalType": "address",
          "name": "from",
          "type": "address"
        },
        {
          "internalType": "address",
          "name": "to",
          "type": "address"
        },
        {
          "internalType": "uint256",
          "name": "tokenId",
          "type": "uint256"
        }
      ],
      "name": "transferFrom",
      "outputs": [],
      "stateMutability": "nonpayable",
      "type": "function"
    },
    {
      "inputs": [
        {
          "internalType": "string",
          "name": "uri",
          "type": "string"
        }
      ],
      "name": "TakeCreateItem",
      "outputs": [
        {
          "internalType": "uint256",
          "name": "",
          "type": "uint256"
        }
      ],
      "stateMutability": "payable",
      "type": "function"
    },
    {
      "inputs": [
        {
          "internalType": "uint256",
          "name": "tokenId",
          "type": "uint256"
        }
      ],
      "name": "tokenURI",
      "outputs": [
        {
          "internalType": "string",
          "name": "",
          "type": "string"
        }
      ],
      "stateMutability": "view",
      "type": "function"
    }
  ],
  "bytecode": "0x608060405273f7d7375edf7a76cb4f3db60c3d65a79640b1cfeb600860006101000a81548173ffffffffffffffffffffffffffffffffffffffff021916908373ffffffffffffffffffffffffffffffffffffffff1602179055503480156200006657600080fd5b506040518060400160405280600a81526020017f496d616e6f546f6b656e000000000000000000000000000000000000000000008152506040518060400160405280600581526020017f496d616e6f0000000000000000000000000000000000000000000000000000008152508160009080519060200190620000eb9291906200014e565b508060019080519060200190620001049291906200014e565b50505033600760006101000a81548173ffffffffffffffffffffffffffffffffffffffff021916908373ffffffffffffffffffffffffffffffffffffffff16021790555062000263565b8280546200015c906200022d565b90600052602060002090601f016020900481019282620001805760008555620001cc565b82601f106200019b57805160ff1916838001178555620001cc565b82800160010185558215620001cc579182015b82811115620001cb578251825591602001919060010190620001ae565b5b509050620001db9190620001df565b5090565b5b80821115620001fa576000816000905550600101620001e0565b5090565b7f4e487b7100000000000000000000000000000000000000000000000000000000600052602260045260246000fd5b600060028204905060018216806200024657607f821691505b602082108114156200025d576200025c620001fe565b5b50919050565b6129a980620002736000396000f3fe6080604052600436106100e85760003560e01c806342842e0e1161008a578063a22cb46511610059578063a22cb46514610321578063b88d4fde1461034a578063c87b56dd14610373578063e985e9c5146103b0576100e8565b806342842e0e146102535780636352211e1461027c57806370a08231146102b957806395d89b41146102f6576100e8565b8063095ea7b3116100c6578063095ea7b31461019257806317b47cc4146101bb57806323b872dd146101fa5780632a05229414610223576100e8565b806301ffc9a7146100ed57806306fdde031461012a578063081812fc14610155575b600080fd5b3480156100f957600080fd5b50610114600480360381019061010f919061196d565b6103ed565b60405161012191906119b5565b60405180910390f35b34801561013657600080fd5b5061013f6104cf565b60405161014c9190611a69565b60405180910390f35b34801561016157600080fd5b5061017c60048036038101906101779190611ac1565b610561565b6040516101899190611b2f565b60405180910390f35b34801561019e57600080fd5b506101b960048036038101906101b49190611b76565b6105e6565b005b3480156101c757600080fd5b506101e260048036038101906101dd9190611ac1565b6106fe565b6040516101f193929190611bc5565b60405180910390f35b34801561020657600080fd5b50610221600480360381019061021c9190611c03565b6107d0565b005b61023d60048036038101906102389190611d8b565b610830565b60405161024a9190611dd4565b60405180910390f35b34801561025f57600080fd5b5061027a60048036038101906102759190611c03565b6108b2565b005b34801561028857600080fd5b506102a3600480360381019061029e9190611ac1565b6108d2565b6040516102b09190611b2f565b60405180910390f35b3480156102c557600080fd5b506102e060048036038101906102db9190611def565b610984565b6040516102ed9190611dd4565b60405180910390f35b34801561030257600080fd5b5061030b610a3c565b6040516103189190611a69565b60405180910390f35b34801561032d57600080fd5b5061034860048036038101906103439190611e48565b610ace565b005b34801561035657600080fd5b50610371600480360381019061036c9190611f29565b610c4f565b005b34801561037f57600080fd5b5061039a60048036038101906103959190611ac1565b610cb1565b6040516103a79190611a69565b60405180910390f35b3480156103bc57600080fd5b506103d760048036038101906103d29190611fac565b610da1565b6040516103e491906119b5565b60405180910390f35b60007f80ac58cd000000000000000000000000000000000000000000000000000000007bffffffffffffffffffffffffffffffffffffffffffffffffffffffff1916827bffffffffffffffffffffffffffffffffffffffffffffffffffffffff191614806104b857507f5b5e139f000000000000000000000000000000000000000000000000000000007bffffffffffffffffffffffffffffffffffffffffffffffffffffffff1916827bffffffffffffffffffffffffffffffffffffffffffffffffffffffff1916145b806104c857506104c782610e35565b5b9050919050565b6060600080546104de9061201b565b80601f016020809104026020016040519081016040528092919081815260200182805461050a9061201b565b80156105575780601f1061052c57610100808354040283529160200191610557565b820191906000526020600020905b81548152906001019060200180831161053a57829003601f168201915b5050505050905090565b600061056c82610e9f565b6105ab576040517f08c379a00000000000000000000000000000000000000000000000000000000081526004016105a2906120bf565b60405180910390fd5b6004600083815260200190815260200160002060009054906101000a900473ffffffffffffffffffffffffffffffffffffffff169050919050565b60006105f1826108d2565b90508073ffffffffffffffffffffffffffffffffffffffff168373ffffffffffffffffffffffffffffffffffffffff161415610662576040517f08c379a000000000000000000000000000000000000000000000000000000000815260040161065990612151565b60405180910390fd5b8073ffffffffffffffffffffffffffffffffffffffff16610681610f0b565b73ffffffffffffffffffffffffffffffffffffffff1614806106b057506106af816106aa610f0b565b610da1565b5b6106ef576040517f08c379a00000000000000000000000000000000000000000000000000000000081526004016106e6906121e3565b60405180910390fd5b6106f98383610f13565b505050565b60096020528060005260406000206000915090508060000154908060010160009054906101000a900473ffffffffffffffffffffffffffffffffffffffff169080600201805461074d9061201b565b80601f01602080910402602001604051908101604052809291908181526020018280546107799061201b565b80156107c65780601f1061079b576101008083540402835291602001916107c6565b820191906000526020600020905b8154815290600101906020018083116107a957829003601f168201915b5050505050905083565b6107e16107db610f0b565b82610fcc565b610820576040517f08c379a000000000000000000000000000000000000000000000000000000000815260040161081790612275565b60405180910390fd5b61082b8383836110aa565b505050565b6000600760009054906101000a900473ffffffffffffffffffffffffffffffffffffffff1673ffffffffffffffffffffffffffffffffffffffff166108fc662386f26fc100009081150290604051600060405180830381858888f193505050501580156108a1573d6000803e3d6000fd5b506108ab82611306565b9050919050565b6108cd83838360405180602001604052806000815250610c4f565b505050565b6000806002600084815260200190815260200160002060009054906101000a900473ffffffffffffffffffffffffffffffffffffffff169050600073ffffffffffffffffffffffffffffffffffffffff168173ffffffffffffffffffffffffffffffffffffffff16141561097b576040517f08c379a000000000000000000000000000000000000000000000000000000000815260040161097290612307565b60405180910390fd5b80915050919050565b60008073ffffffffffffffffffffffffffffffffffffffff168273ffffffffffffffffffffffffffffffffffffffff1614156109f5576040517f08c379a00000000000000000000000000000000000000000000000000000000081526004016109ec90612399565b60405180910390fd5b600360008373ffffffffffffffffffffffffffffffffffffffff1673ffffffffffffffffffffffffffffffffffffffff168152602001908152602001600020549050919050565b606060018054610a4b9061201b565b80601f0160208091040260200160405190810160405280929190818152602001828054610a779061201b565b8015610ac45780601f10610a9957610100808354040283529160200191610ac4565b820191906000526020600020905b815481529060010190602001808311610aa757829003601f168201915b5050505050905090565b610ad6610f0b565b73ffffffffffffffffffffffffffffffffffffffff168273ffffffffffffffffffffffffffffffffffffffff161415610b44576040517f08c379a0000000000000000000000000000000000000000000000000000000008152600401610b3b90612405565b60405180910390fd5b8060056000610b51610f0b565b73ffffffffffffffffffffffffffffffffffffffff1673ffffffffffffffffffffffffffffffffffffffff16815260200190815260200160002060008473ffffffffffffffffffffffffffffffffffffffff1673ffffffffffffffffffffffffffffffffffffffff16815260200190815260200160002060006101000a81548160ff0219169083151502179055508173ffffffffffffffffffffffffffffffffffffffff16610bfe610f0b565b73ffffffffffffffffffffffffffffffffffffffff167f17307eab39ab6107e8899845ad3d59bd9653f200f220920489ca2b5937696c3183604051610c4391906119b5565b60405180910390a35050565b610c60610c5a610f0b565b83610fcc565b610c9f576040517f08c379a0000000000000000000000000000000000000000000000000000000008152600401610c9690612275565b60405180910390fd5b610cab848484846113e8565b50505050565b6060610cbc82610e9f565b610cfb576040517f08c379a0000000000000000000000000000000000000000000000000000000008152600401610cf290612497565b60405180910390fd5b600960008381526020019081526020016000206002018054610d1c9061201b565b80601f0160208091040260200160405190810160405280929190818152602001828054610d489061201b565b8015610d955780601f10610d6a57610100808354040283529160200191610d95565b820191906000526020600020905b815481529060010190602001808311610d7857829003601f168201915b50505050509050919050565b6000600560008473ffffffffffffffffffffffffffffffffffffffff1673ffffffffffffffffffffffffffffffffffffffff16815260200190815260200160002060008373ffffffffffffffffffffffffffffffffffffffff1673ffffffffffffffffffffffffffffffffffffffff16815260200190815260200160002060009054906101000a900460ff16905092915050565b60007f01ffc9a7000000000000000000000000000000000000000000000000000000007bffffffffffffffffffffffffffffffffffffffffffffffffffffffff1916827bffffffffffffffffffffffffffffffffffffffffffffffffffffffff1916149050919050565b60008073ffffffffffffffffffffffffffffffffffffffff166002600084815260200190815260200160002060009054906101000a900473ffffffffffffffffffffffffffffffffffffffff1673ffffffffffffffffffffffffffffffffffffffff1614159050919050565b600033905090565b816004600083815260200190815260200160002060006101000a81548173ffffffffffffffffffffffffffffffffffffffff021916908373ffffffffffffffffffffffffffffffffffffffff160217905550808273ffffffffffffffffffffffffffffffffffffffff16610f86836108d2565b73ffffffffffffffffffffffffffffffffffffffff167f8c5be1e5ebec7d5bd14f71427d1e84f3dd0314c0f7b2291e5b200ac8c7c3b92560405160405180910390a45050565b6000610fd782610e9f565b611016576040517f08c379a000000000000000000000000000000000000000000000000000000000815260040161100d90612529565b60405180910390fd5b6000611021836108d2565b90508073ffffffffffffffffffffffffffffffffffffffff168473ffffffffffffffffffffffffffffffffffffffff16148061109057508373ffffffffffffffffffffffffffffffffffffffff1661107884610561565b73ffffffffffffffffffffffffffffffffffffffff16145b806110a157506110a08185610da1565b5b91505092915050565b8273ffffffffffffffffffffffffffffffffffffffff166110ca826108d2565b73ffffffffffffffffffffffffffffffffffffffff1614611120576040517f08c379a0000000000000000000000000000000000000000000000000000000008152600401611117906125bb565b60405180910390fd5b600073ffffffffffffffffffffffffffffffffffffffff168273ffffffffffffffffffffffffffffffffffffffff161415611190576040517f08c379a00000000000000000000000000000000000000000000000000000000081526004016111879061264d565b60405180910390fd5b61119b838383611444565b6111a6600082610f13565b6001600360008573ffffffffffffffffffffffffffffffffffffffff1673ffffffffffffffffffffffffffffffffffffffff16815260200190815260200160002060008282546111f6919061269c565b925050819055506001600360008473ffffffffffffffffffffffffffffffffffffffff1673ffffffffffffffffffffffffffffffffffffffff168152602001908152602001600020600082825461124d91906126d0565b92505081905550816002600083815260200190815260200160002060006101000a81548173ffffffffffffffffffffffffffffffffffffffff021916908373ffffffffffffffffffffffffffffffffffffffff160217905550808273ffffffffffffffffffffffffffffffffffffffff168473ffffffffffffffffffffffffffffffffffffffff167fddf252ad1be2c89b69c2b068fc378daa952ba7f163c4a11628f55a4df523b3ef60405160405180910390a4505050565b60006113126006611449565b600061131e600661145f565b905061132a338261146d565b60405180606001604052808281526020013373ffffffffffffffffffffffffffffffffffffffff16815260200184815250600960008381526020019081526020016000206000820151816000015560208201518160010160006101000a81548173ffffffffffffffffffffffffffffffffffffffff021916908373ffffffffffffffffffffffffffffffffffffffff16021790555060408201518160020190805190602001906113db92919061185e565b5090505080915050919050565b6113f38484846110aa565b6113ff8484848461148b565b61143e576040517f08c379a000000000000000000000000000000000000000000000000000000000815260040161143590612798565b60405180910390fd5b50505050565b505050565b6001816000016000828254019250508190555050565b600081600001549050919050565b611487828260405180602001604052806000815250611622565b5050565b60006114ac8473ffffffffffffffffffffffffffffffffffffffff1661167d565b15611615578373ffffffffffffffffffffffffffffffffffffffff1663150b7a026114d5610f0b565b8786866040518563ffffffff1660e01b81526004016114f7949392919061280d565b602060405180830381600087803b15801561151157600080fd5b505af192505050801561154257506040513d601f19601f8201168201806040525081019061153f919061286e565b60015b6115c5573d8060008114611572576040519150601f19603f3d011682016040523d82523d6000602084013e611577565b606091505b506000815114156115bd576040517f08c379a00000000000000000000000000000000000000000000000000000000081526004016115b490612798565b60405180910390fd5b805181602001fd5b63150b7a0260e01b7bffffffffffffffffffffffffffffffffffffffffffffffffffffffff1916817bffffffffffffffffffffffffffffffffffffffffffffffffffffffff19161491505061161a565b600190505b949350505050565b61162c8383611690565b611639600084848461148b565b611678576040517f08c379a000000000000000000000000000000000000000000000000000000000815260040161166f90612798565b60405180910390fd5b505050565b600080823b905060008111915050919050565b600073ffffffffffffffffffffffffffffffffffffffff168273ffffffffffffffffffffffffffffffffffffffff161415611700576040517f08c379a00000000000000000000000000000000000000000000000000000000081526004016116f7906128e7565b60405180910390fd5b61170981610e9f565b15611749576040517f08c379a000000000000000000000000000000000000000000000000000000000815260040161174090612953565b60405180910390fd5b61175560008383611444565b6001600360008473ffffffffffffffffffffffffffffffffffffffff1673ffffffffffffffffffffffffffffffffffffffff16815260200190815260200160002060008282546117a591906126d0565b92505081905550816002600083815260200190815260200160002060006101000a81548173ffffffffffffffffffffffffffffffffffffffff021916908373ffffffffffffffffffffffffffffffffffffffff160217905550808273ffffffffffffffffffffffffffffffffffffffff16600073ffffffffffffffffffffffffffffffffffffffff167fddf252ad1be2c89b69c2b068fc378daa952ba7f163c4a11628f55a4df523b3ef60405160405180910390a45050565b82805461186a9061201b565b90600052602060002090601f01602090048101928261188c57600085556118d3565b82601f106118a557805160ff19168380011785556118d3565b828001600101855582156118d3579182015b828111156118d25782518255916020019190600101906118b7565b5b5090506118e091906118e4565b5090565b5b808211156118fd5760008160009055506001016118e5565b5090565b6000604051905090565b600080fd5b600080fd5b60007fffffffff0000000000000000000000000000000000000000000000000000000082169050919050565b61194a81611915565b811461195557600080fd5b50565b60008135905061196781611941565b92915050565b6000602082840312156119835761198261190b565b5b600061199184828501611958565b91505092915050565b60008115159050919050565b6119af8161199a565b82525050565b60006020820190506119ca60008301846119a6565b92915050565b600081519050919050565b600082825260208201905092915050565b60005b83811015611a0a5780820151818401526020810190506119ef565b83811115611a19576000848401525b50505050565b6000601f19601f8301169050919050565b6000611a3b826119d0565b611a4581856119db565b9350611a558185602086016119ec565b611a5e81611a1f565b840191505092915050565b60006020820190508181036000830152611a838184611a30565b905092915050565b6000819050919050565b611a9e81611a8b565b8114611aa957600080fd5b50565b600081359050611abb81611a95565b92915050565b600060208284031215611ad757611ad661190b565b5b6000611ae584828501611aac565b91505092915050565b600073ffffffffffffffffffffffffffffffffffffffff82169050919050565b6000611b1982611aee565b9050919050565b611b2981611b0e565b82525050565b6000602082019050611b446000830184611b20565b92915050565b611b5381611b0e565b8114611b5e57600080fd5b50565b600081359050611b7081611b4a565b92915050565b60008060408385031215611b8d57611b8c61190b565b5b6000611b9b85828601611b61565b9250506020611bac85828601611aac565b9150509250929050565b611bbf81611a8b565b82525050565b6000606082019050611bda6000830186611bb6565b611be76020830185611b20565b8181036040830152611bf98184611a30565b9050949350505050565b600080600060608486031215611c1c57611c1b61190b565b5b6000611c2a86828701611b61565b9350506020611c3b86828701611b61565b9250506040611c4c86828701611aac565b9150509250925092565b600080fd5b600080fd5b7f4e487b7100000000000000000000000000000000000000000000000000000000600052604160045260246000fd5b611c9882611a1f565b810181811067ffffffffffffffff82111715611cb757611cb6611c60565b5b80604052505050565b6000611cca611901565b9050611cd68282611c8f565b919050565b600067ffffffffffffffff821115611cf657611cf5611c60565b5b611cff82611a1f565b9050602081019050919050565b82818337600083830152505050565b6000611d2e611d2984611cdb565b611cc0565b905082815260208101848484011115611d4a57611d49611c5b565b5b611d55848285611d0c565b509392505050565b600082601f830112611d7257611d71611c56565b5b8135611d82848260208601611d1b565b91505092915050565b600060208284031215611da157611da061190b565b5b600082013567ffffffffffffffff811115611dbf57611dbe611910565b5b611dcb84828501611d5d565b91505092915050565b6000602082019050611de96000830184611bb6565b92915050565b600060208284031215611e0557611e0461190b565b5b6000611e1384828501611b61565b91505092915050565b611e258161199a565b8114611e3057600080fd5b50565b600081359050611e4281611e1c565b92915050565b60008060408385031215611e5f57611e5e61190b565b5b6000611e6d85828601611b61565b9250506020611e7e85828601611e33565b9150509250929050565b600067ffffffffffffffff821115611ea357611ea2611c60565b5b611eac82611a1f565b9050602081019050919050565b6000611ecc611ec784611e88565b611cc0565b905082815260208101848484011115611ee857611ee7611c5b565b5b611ef3848285611d0c565b509392505050565b600082601f830112611f1057611f0f611c56565b5b8135611f20848260208601611eb9565b91505092915050565b60008060008060808587031215611f4357611f4261190b565b5b6000611f5187828801611b61565b9450506020611f6287828801611b61565b9350506040611f7387828801611aac565b925050606085013567ffffffffffffffff811115611f9457611f93611910565b5b611fa087828801611efb565b91505092959194509250565b60008060408385031215611fc357611fc261190b565b5b6000611fd185828601611b61565b9250506020611fe285828601611b61565b9150509250929050565b7f4e487b7100000000000000000000000000000000000000000000000000000000600052602260045260246000fd5b6000600282049050600182168061203357607f821691505b6020821081141561204757612046611fec565b5b50919050565b7f4552433732313a20617070726f76656420717565727920666f72206e6f6e657860008201527f697374656e7420746f6b656e0000000000000000000000000000000000000000602082015250565b60006120a9602c836119db565b91506120b48261204d565b604082019050919050565b600060208201905081810360008301526120d88161209c565b9050919050565b7f4552433732313a20617070726f76616c20746f2063757272656e74206f776e6560008201527f7200000000000000000000000000000000000000000000000000000000000000602082015250565b600061213b6021836119db565b9150612146826120df565b604082019050919050565b6000602082019050818103600083015261216a8161212e565b9050919050565b7f4552433732313a20617070726f76652063616c6c6572206973206e6f74206f7760008201527f6e6572206e6f7220617070726f76656420666f7220616c6c0000000000000000602082015250565b60006121cd6038836119db565b91506121d882612171565b604082019050919050565b600060208201905081810360008301526121fc816121c0565b9050919050565b7f4552433732313a207472616e736665722063616c6c6572206973206e6f74206f60008201527f776e6572206e6f7220617070726f766564000000000000000000000000000000602082015250565b600061225f6031836119db565b915061226a82612203565b604082019050919050565b6000602082019050818103600083015261228e81612252565b9050919050565b7f4552433732313a206f776e657220717565727920666f72206e6f6e657869737460008201527f656e7420746f6b656e0000000000000000000000000000000000000000000000602082015250565b60006122f16029836119db565b91506122fc82612295565b604082019050919050565b60006020820190508181036000830152612320816122e4565b9050919050565b7f4552433732313a2062616c616e636520717565727920666f7220746865207a6560008201527f726f206164647265737300000000000000000000000000000000000000000000602082015250565b6000612383602a836119db565b915061238e82612327565b604082019050919050565b600060208201905081810360008301526123b281612376565b9050919050565b7f4552433732313a20617070726f766520746f2063616c6c657200000000000000600082015250565b60006123ef6019836119db565b91506123fa826123b9565b602082019050919050565b6000602082019050818103600083015261241e816123e2565b9050919050565b7f4552433732314d657461646174613a2055524920717565727920666f72206e6f60008201527f6e6578697374656e7420746f6b656e0000000000000000000000000000000000602082015250565b6000612481602f836119db565b915061248c82612425565b604082019050919050565b600060208201905081810360008301526124b081612474565b9050919050565b7f4552433732313a206f70657261746f7220717565727920666f72206e6f6e657860008201527f697374656e7420746f6b656e0000000000000000000000000000000000000000602082015250565b6000612513602c836119db565b915061251e826124b7565b604082019050919050565b6000602082019050818103600083015261254281612506565b9050919050565b7f4552433732313a207472616e73666572206f6620746f6b656e2074686174206960008201527f73206e6f74206f776e0000000000000000000000000000000000000000000000602082015250565b60006125a56029836119db565b91506125b082612549565b604082019050919050565b600060208201905081810360008301526125d481612598565b9050919050565b7f4552433732313a207472616e7366657220746f20746865207a65726f2061646460008201527f7265737300000000000000000000000000000000000000000000000000000000602082015250565b60006126376024836119db565b9150612642826125db565b604082019050919050565b600060208201905081810360008301526126668161262a565b9050919050565b7f4e487b7100000000000000000000000000000000000000000000000000000000600052601160045260246000fd5b60006126a782611a8b565b91506126b283611a8b565b9250828210156126c5576126c461266d565b5b828203905092915050565b60006126db82611a8b565b91506126e683611a8b565b9250827fffffffffffffffffffffffffffffffffffffffffffffffffffffffffffffffff0382111561271b5761271a61266d565b5b828201905092915050565b7f4552433732313a207472616e7366657220746f206e6f6e20455243373231526560008201527f63656976657220696d706c656d656e7465720000000000000000000000000000602082015250565b60006127826032836119db565b915061278d82612726565b604082019050919050565b600060208201905081810360008301526127b181612775565b9050919050565b600081519050919050565b600082825260208201905092915050565b60006127df826127b8565b6127e981856127c3565b93506127f98185602086016119ec565b61280281611a1f565b840191505092915050565b60006080820190506128226000830187611b20565b61282f6020830186611b20565b61283c6040830185611bb6565b818103606083015261284e81846127d4565b905095945050505050565b60008151905061286881611941565b92915050565b6000602082840312156128845761288361190b565b5b600061289284828501612859565b91505092915050565b7f4552433732313a206d696e7420746f20746865207a65726f2061646472657373600082015250565b60006128d16020836119db565b91506128dc8261289b565b602082019050919050565b60006020820190508181036000830152612900816128c4565b9050919050565b7f4552433732313a20746f6b656e20616c7265616479206d696e74656400000000600082015250565b600061293d601c836119db565b915061294882612907565b602082019050919050565b6000602082019050818103600083015261296c81612930565b905091905056fea2646970667358221220d9feae4f1aa6598df197ec65f33490b21d05302e524078de03261500383fc0bb64736f6c63430008090033",
  "immutableReferences": {},
  "source": "// SPDX-License-Identifier: MIT\n\npragma solidity ^0.8.0;\n\nimport \"@openzeppelin/contracts/token/ERC721/ERC721.sol\";\nimport \"@openzeppelin/contracts/utils/Counters.sol\";\n\ncontract ImanoToken is ERC721 { \n    using Counters for Counters.Counter; \n    Counters.Counter private _tokenIds; \n    address Owner;\n    address Creatorx = 0xf7d7375edF7A76cB4f3dB60c3D65A79640B1cfEb;\n \n    constructor ()  ERC721(\"ImanoToken\", \"Imano\") {\n        Owner = msg.sender;\n    } \n\n \n    struct Item { \n        uint256 id; \n        address creator; \n        string uri; \n    } \n \n    mapping (uint256 => Item) public Items; \n\n    function TakeCreateItem(string memory uri) external payable returns(uint256){\n        payable(Owner).transfer(0.01 ether);\n       return _createItem(uri);\n    }\n \n    function _createItem(string memory _uri) private returns (uint256){ \n        _tokenIds.increment(); \n        uint256 newItemId = _tokenIds.current(); \n        _safeMint(msg.sender, newItemId); \n \n        Items[newItemId] = Item(newItemId, msg.sender, _uri); \n \n        return newItemId; \n    } \n \n    function tokenURI(uint256 tokenId) public view override returns (string memory) { \n        require(_exists(tokenId), \"ERC721Metadata: URI query for nonexistent token\"); \n \n       return Items[tokenId].uri; \n    } \n}",
  "sourcePath": "/home/nowtech/blockchain/youtube-tutorials/rarible-clone/contracts/contracts/ImanoToken.sol",
  "compiler": {
    "name": "solc",
    "version": "0.8.9+commit.e5eed63a.Emscripten.clang"
  },
  "schemaVersion": "3.3.4",
  "updatedAt": "2021-10-07T19:39:28.486Z",
  "devdoc": {
    "kind": "dev",
    "methods": {
      "approve(address,uint256)": {
        "details": "See {IERC721-approve}."
      },
      "balanceOf(address)": {
        "details": "See {IERC721-balanceOf}."
      },
      "getApproved(uint256)": {
        "details": "See {IERC721-getApproved}."
      },
      "isApprovedForAll(address,address)": {
        "details": "See {IERC721-isApprovedForAll}."
      },
      "name()": {
        "details": "See {IERC721Metadata-name}."
      },
      "ownerOf(uint256)": {
        "details": "See {IERC721-ownerOf}."
      },
      "safeTransferFrom(address,address,uint256)": {
        "details": "See {IERC721-safeTransferFrom}."
      },
      "safeTransferFrom(address,address,uint256,bytes)": {
        "details": "See {IERC721-safeTransferFrom}."
      },
      "setApprovalForAll(address,bool)": {
        "details": "See {IERC721-setApprovalForAll}."
      },
      "supportsInterface(bytes4)": {
        "details": "See {IERC165-supportsInterface}."
      },
      "symbol()": {
        "details": "See {IERC721Metadata-symbol}."
      },
      "tokenURI(uint256)": {
        "details": "See {IERC721Metadata-tokenURI}."
      },
      "transferFrom(address,address,uint256)": {
        "details": "See {IERC721-transferFrom}."
      }
    },
    "version": 1
  },
  "userdoc": {
    "kind": "user",
    "methods": {},
    "version": 1
  }
}