{
  "contractName": "ImanoMarketContract",
  "abi": [
    {
      "anonymous": false,
      "inputs": [
        {
          "indexed": false,
          "internalType": "uint256",
          "name": "id",
          "type": "uint256"
        },
        {
          "indexed": false,
          "internalType": "uint256",
          "name": "tokenId",
          "type": "uint256"
        },
        {
          "indexed": false,
          "internalType": "address",
          "name": "tokenAddress",
          "type": "address"
        },
        {
          "indexed": false,
          "internalType": "uint256",
          "name": "askingPrice",
          "type": "uint256"
        }
      ],
      "name": "itemAdded",
      "type": "event"
    },
    {
      "anonymous": false,
      "inputs": [
        {
          "indexed": false,
          "internalType": "uint256",
          "name": "id",
          "type": "uint256"
        },
        {
          "indexed": false,
          "internalType": "address",
          "name": "buyer",
          "type": "address"
        },
        {
          "indexed": false,
          "internalType": "uint256",
          "name": "askingPrice",
          "type": "uint256"
        }
      ],
      "name": "itemSold",
      "type": "event"
    },
    {
      "inputs": [
        {
          "internalType": "uint256",
          "name": "",
          "type": "uint256"
        }
      ],
      "name": "itemsForSale",
      "outputs": [
        {
          "internalType": "uint256",
          "name": "id",
          "type": "uint256"
        },
        {
          "internalType": "address",
          "name": "tokenAddress",
          "type": "address"
        },
        {
          "internalType": "uint256",
          "name": "tokenId",
          "type": "uint256"
        },
        {
          "internalType": "address payable",
          "name": "seller",
          "type": "address"
        },
        {
          "internalType": "uint256",
          "name": "askingPrice",
          "type": "uint256"
        },
        {
          "internalType": "bool",
          "name": "isSold",
          "type": "bool"
        }
      ],
      "stateMutability": "view",
      "type": "function"
    },
    {
      "inputs": [
        {
          "internalType": "uint256",
          "name": "tokenId",
          "type": "uint256"
        },
        {
          "internalType": "address",
          "name": "tokenAddress",
          "type": "address"
        },
        {
          "internalType": "uint256",
          "name": "askingPrice",
          "type": "uint256"
        }
      ],
      "name": "addItemToMarket",
      "outputs": [
        {
          "internalType": "uint256",
          "name": "",
          "type": "uint256"
        }
      ],
      "stateMutability": "nonpayable",
      "type": "function"
    },
    {
      "inputs": [
        {
          "internalType": "uint256",
          "name": "id",
          "type": "uint256"
        }
      ],
      "name": "buyItem",
      "outputs": [],
      "stateMutability": "payable",
      "type": "function"
    }
  ],
  "bytecode": "0x608060405234801561001057600080fd5b506111ac806100206000396000f3fe6080604052600436106100345760003560e01c8063092d0afc146100395780634abc22021461007b578063e7fb74c7146100b8575b600080fd5b34801561004557600080fd5b50610060600480360381019061005b9190610c4f565b6100d4565b60405161007296959493929190610d08565b60405180910390f35b34801561008757600080fd5b506100a2600480360381019061009d9190610d95565b61016d565b6040516100af9190610de8565b60405180910390f35b6100d260048036038101906100cd9190610c4f565b6105ea565b005b600081815481106100e457600080fd5b90600052602060002090600602016000915090508060000154908060010160009054906101000a900473ffffffffffffffffffffffffffffffffffffffff16908060020154908060030160009054906101000a900473ffffffffffffffffffffffffffffffffffffffff16908060040154908060050160009054906101000a900460ff16905086565b6000828460008290503373ffffffffffffffffffffffffffffffffffffffff168173ffffffffffffffffffffffffffffffffffffffff16636352211e846040518263ffffffff1660e01b81526004016101c69190610de8565b60206040518083038186803b1580156101de57600080fd5b505afa1580156101f2573d6000803e3d6000fd5b505050506040513d601f19601f820116820180604052508101906102169190610e18565b73ffffffffffffffffffffffffffffffffffffffff161461023657600080fd5b858760008290503073ffffffffffffffffffffffffffffffffffffffff168173ffffffffffffffffffffffffffffffffffffffff1663081812fc846040518263ffffffff1660e01b815260040161028d9190610de8565b60206040518083038186803b1580156102a557600080fd5b505afa1580156102b9573d6000803e3d6000fd5b505050506040513d601f19601f820116820180604052508101906102dd9190610e18565b73ffffffffffffffffffffffffffffffffffffffff16146102fd57600080fd5b60001515600160008b73ffffffffffffffffffffffffffffffffffffffff1673ffffffffffffffffffffffffffffffffffffffff16815260200190815260200160002060008c815260200190815260200160002060009054906101000a900460ff161515146103a1576040517f08c379a000000000000000000000000000000000000000000000000000000000815260040161039890610ea2565b60405180910390fd5b60008080549050905060006040518060c001604052808381526020018c73ffffffffffffffffffffffffffffffffffffffff1681526020018d81526020013373ffffffffffffffffffffffffffffffffffffffff1681526020018b81526020016000151581525090806001815401808255809150506001900390600052602060002090600602016000909190919091506000820151816000015560208201518160010160006101000a81548173ffffffffffffffffffffffffffffffffffffffff021916908373ffffffffffffffffffffffffffffffffffffffff1602179055506040820151816002015560608201518160030160006101000a81548173ffffffffffffffffffffffffffffffffffffffff021916908373ffffffffffffffffffffffffffffffffffffffff1602179055506080820151816004015560a08201518160050160006101000a81548160ff021916908315150217905550505060018060008c73ffffffffffffffffffffffffffffffffffffffff1673ffffffffffffffffffffffffffffffffffffffff16815260200190815260200160002060008d815260200190815260200160002060006101000a81548160ff021916908315150217905550806000828154811061057c5761057b610ec2565b5b9060005260206000209060060201600001541461059c5761059b610ef1565b5b7fd3742413e0092c98517699ed9f8567218c740a5a265a7a986d9430d597937522818c8c8c6040516105d19493929190610f20565b60405180910390a1809750505050505050509392505050565b80600080549050811080156106235750806000828154811061060f5761060e610ec2565b5b906000526020600020906006020160000154145b610662576040517f08c379a000000000000000000000000000000000000000000000000000000000815260040161065990610fb1565b60405180910390fd5b81600015156000828154811061067b5761067a610ec2565b5b906000526020600020906006020160050160009054906101000a900460ff161515146106dc576040517f08c379a00000000000000000000000000000000000000000000000000000000081526004016106d39061101d565b60405180910390fd5b600083815481106106f0576106ef610ec2565b5b906000526020600020906006020160010160009054906101000a900473ffffffffffffffffffffffffffffffffffffffff166000848154811061073657610735610ec2565b5b90600052602060002090600602016002015460008290503073ffffffffffffffffffffffffffffffffffffffff168173ffffffffffffffffffffffffffffffffffffffff1663081812fc846040518263ffffffff1660e01b815260040161079d9190610de8565b60206040518083038186803b1580156107b557600080fd5b505afa1580156107c9573d6000803e3d6000fd5b505050506040513d601f19601f820116820180604052508101906107ed9190610e18565b73ffffffffffffffffffffffffffffffffffffffff161461080d57600080fd5b6000868154811061082157610820610ec2565b5b906000526020600020906006020160040154341015610875576040517f08c379a000000000000000000000000000000000000000000000000000000000815260040161086c90611089565b60405180910390fd5b6000868154811061088957610888610ec2565b5b906000526020600020906006020160030160009054906101000a900473ffffffffffffffffffffffffffffffffffffffff1673ffffffffffffffffffffffffffffffffffffffff163373ffffffffffffffffffffffffffffffffffffffff1614156108f357600080fd5b60016000878154811061090957610908610ec2565b5b906000526020600020906006020160050160006101000a81548160ff02191690831515021790555060006001600080898154811061094a57610949610ec2565b5b906000526020600020906006020160010160009054906101000a900473ffffffffffffffffffffffffffffffffffffffff1673ffffffffffffffffffffffffffffffffffffffff1673ffffffffffffffffffffffffffffffffffffffff16815260200190815260200160002060008089815481106109cb576109ca610ec2565b5b906000526020600020906006020160020154815260200190815260200160002060006101000a81548160ff02191690831515021790555060008681548110610a1657610a15610ec2565b5b906000526020600020906006020160010160009054906101000a900473ffffffffffffffffffffffffffffffffffffffff1673ffffffffffffffffffffffffffffffffffffffff166342842e0e60008881548110610a7757610a76610ec2565b5b906000526020600020906006020160030160009054906101000a900473ffffffffffffffffffffffffffffffffffffffff163360008a81548110610abe57610abd610ec2565b5b9060005260206000209060060201600201546040518463ffffffff1660e01b8152600401610aee93929190611108565b600060405180830381600087803b158015610b0857600080fd5b505af1158015610b1c573d6000803e3d6000fd5b5050505060008681548110610b3457610b33610ec2565b5b906000526020600020906006020160030160009054906101000a900473ffffffffffffffffffffffffffffffffffffffff1673ffffffffffffffffffffffffffffffffffffffff166108fc349081150290604051600060405180830381858888f19350505050158015610bab573d6000803e3d6000fd5b507f8164c6f8917e418c49813e4586897c7067de5a886aa1bea980cd11fa57d48264863360008981548110610be357610be2610ec2565b5b906000526020600020906006020160040154604051610c049392919061113f565b60405180910390a1505050505050565b600080fd5b6000819050919050565b610c2c81610c19565b8114610c3757600080fd5b50565b600081359050610c4981610c23565b92915050565b600060208284031215610c6557610c64610c14565b5b6000610c7384828501610c3a565b91505092915050565b610c8581610c19565b82525050565b600073ffffffffffffffffffffffffffffffffffffffff82169050919050565b6000610cb682610c8b565b9050919050565b610cc681610cab565b82525050565b6000610cd782610c8b565b9050919050565b610ce781610ccc565b82525050565b60008115159050919050565b610d0281610ced565b82525050565b600060c082019050610d1d6000830189610c7c565b610d2a6020830188610cbd565b610d376040830187610c7c565b610d446060830186610cde565b610d516080830185610c7c565b610d5e60a0830184610cf9565b979650505050505050565b610d7281610cab565b8114610d7d57600080fd5b50565b600081359050610d8f81610d69565b92915050565b600080600060608486031215610dae57610dad610c14565b5b6000610dbc86828701610c3a565b9350506020610dcd86828701610d80565b9250506040610dde86828701610c3a565b9150509250925092565b6000602082019050610dfd6000830184610c7c565b92915050565b600081519050610e1281610d69565b92915050565b600060208284031215610e2e57610e2d610c14565b5b6000610e3c84828501610e03565b91505092915050565b600082825260208201905092915050565b7f4974656d20697320616c726561647920757020666f722073616c652100000000600082015250565b6000610e8c601c83610e45565b9150610e9782610e56565b602082019050919050565b60006020820190508181036000830152610ebb81610e7f565b9050919050565b7f4e487b7100000000000000000000000000000000000000000000000000000000600052603260045260246000fd5b7f4e487b7100000000000000000000000000000000000000000000000000000000600052600160045260246000fd5b6000608082019050610f356000830187610c7c565b610f426020830186610c7c565b610f4f6040830185610cbd565b610f5c6060830184610c7c565b95945050505050565b7f436f756c64206e6f742066696e64206974656d00000000000000000000000000600082015250565b6000610f9b601383610e45565b9150610fa682610f65565b602082019050919050565b60006020820190508181036000830152610fca81610f8e565b9050919050565b7f4974656d20697320616c726561647920736f6c64210000000000000000000000600082015250565b6000611007601583610e45565b915061101282610fd1565b602082019050919050565b6000602082019050818103600083015261103681610ffa565b9050919050565b7f4e6f7420656e6f7567682066756e64732073656e740000000000000000000000600082015250565b6000611073601583610e45565b915061107e8261103d565b602082019050919050565b600060208201905081810360008301526110a281611066565b9050919050565b6000819050919050565b60006110ce6110c96110c484610c8b565b6110a9565b610c8b565b9050919050565b60006110e0826110b3565b9050919050565b60006110f2826110d5565b9050919050565b611102816110e7565b82525050565b600060608201905061111d60008301866110f9565b61112a6020830185610cbd565b6111376040830184610c7c565b949350505050565b60006060820190506111546000830186610c7c565b6111616020830185610cbd565b61116e6040830184610c7c565b94935050505056fea264697066735822122064b52331df37e247def7c267912a00a94867ceb2231fa2633ea4600fa3c9ad0f64736f6c63430008090033",
  "immutableReferences": {},
  "source": "// SPDX-License-Identifier: MIT\npragma solidity ^0.8.0;\n\nimport \"@openzeppelin/contracts/token/ERC721/IERC721.sol\";\n\ncontract ImanoMarketContract {\n    struct AuctionItem {\n        uint256 id;\n        address tokenAddress;\n        uint256 tokenId;\n        address payable seller;\n        uint256 askingPrice;\n        bool isSold;\n    }\n\n    AuctionItem[] public itemsForSale;\n    mapping (address => mapping (uint256 => bool)) activeItems;\n\n    event itemAdded(uint256 id, uint256 tokenId, address tokenAddress, uint256 askingPrice);\n    event itemSold(uint256 id, address buyer, uint256 askingPrice);\n\n    modifier OnlyItemOwner(address tokenAddress, uint256 tokenId){\n        IERC721 tokenContract = IERC721(tokenAddress);\n        require(tokenContract.ownerOf(tokenId) == msg.sender);\n        _;\n    }\n\n    modifier HasTransferApproval(address tokenAddress, uint256 tokenId){\n        IERC721 tokenContract = IERC721(tokenAddress);\n        require(tokenContract.getApproved(tokenId) == address(this));\n        _;\n    }\n\n    modifier ItemExists(uint256 id){\n        require(id < itemsForSale.length && itemsForSale[id].id == id, \"Could not find item\");\n        _;\n    }\n\n    modifier IsForSale(uint256 id){\n        require(itemsForSale[id].isSold == false, \"Item is already sold!\");\n        _;\n    }\n\n    function addItemToMarket(uint256 tokenId, address tokenAddress, uint256 askingPrice) OnlyItemOwner(tokenAddress,tokenId) HasTransferApproval(tokenAddress,tokenId) external returns (uint256){\n        require(activeItems[tokenAddress][tokenId] == false, \"Item is already up for sale!\");\n        uint256 newItemId = itemsForSale.length;\n        itemsForSale.push(AuctionItem(newItemId, tokenAddress, tokenId, payable(msg.sender), askingPrice, false));\n        activeItems[tokenAddress][tokenId] = true;\n\n        assert(itemsForSale[newItemId].id == newItemId);\n        emit itemAdded(newItemId, tokenId, tokenAddress, askingPrice);\n        return newItemId;\n    }\n\n    function buyItem(uint256 id) payable external ItemExists(id) IsForSale(id) HasTransferApproval(itemsForSale[id].tokenAddress,itemsForSale[id].tokenId){\n        require(msg.value >= itemsForSale[id].askingPrice, \"Not enough funds sent\");\n        require(msg.sender != itemsForSale[id].seller);\n\n        itemsForSale[id].isSold = true;\n        activeItems[itemsForSale[id].tokenAddress][itemsForSale[id].tokenId] = false;\n        IERC721(itemsForSale[id].tokenAddress).safeTransferFrom(itemsForSale[id].seller, msg.sender, itemsForSale[id].tokenId);\n        itemsForSale[id].seller.transfer(msg.value);\n\n        emit itemSold(id, msg.sender,itemsForSale[id].askingPrice);\n    }\n}",
  "sourcePath": "/home/nowtech/blockchain/youtube-tutorials/rarible-clone/contracts/contracts/Marketplace.sol",
  "compiler": {
    "name": "solc",
    "version": "0.8.9+commit.e5eed63a.Emscripten.clang"
  },
  "schemaVersion": "3.3.4",
  "updatedAt": "2021-10-06T22:02:59.932Z",
  "devdoc": {
    "kind": "dev",
    "methods": {},
    "version": 1
  },
  "userdoc": {
    "kind": "user",
    "methods": {},
    "version": 1
  }
}